:10000000982000204D100000491000004910000009
:1000100000000000000000000000000000000000E0
:100020000000000000000000000000004910000077
:10003000000000000000000049100000491000000E
:10004000491000004910000049100000491000004C
:10005000491000004910000049100000AD090000DF
:10006000BD090000CD090000DD090000ED09000018
:10007000FD0900004910000049100000491000006F
:10008000491000004910000049100000491000000C
:1000900049100000491000004910000049100000FC
:1000A0004910000010B5064C2378002B07D1054BF2
:1000B000002B02D0044800E000BF0123237010BDD4
:1000C0000400002000000000B4140000084B10B52C
:1000D000002B03D00749084800E000BF0748036829
:1000E000002B00D110BD064B002BFBD09847F9E741
:1000F0000000000008000020B4140000B414000048
:1001000000000000F0B5DE4657464E464546E0B5D5
:1001100087B08046049116001F00002200230021B2
:100120008B463F2401202100009601975C460394F2
:100130004446059413E02024641A0500E540A846CF
:1001400014E0009C019D121BAB415C464D462C43C4
:10015000A346039C45462C430394013925D3202410
:1001600064420C19E7D40500A540A84604008C4061
:10017000A14692185B4114001D00059E4F463E406B
:10018000B446049E47463E40B246664657463E4306
:1001900003D00600264332002B00009C019D9D42A7
:1001A000DBD8CED19442D8D8CBE7039B5846190070
:1001B00007B03CBC90469946A246AB46F0BD10B590
:1001C000490840230024814202D2180010BD1C00BF
:1001D000091A631C9BB28842F9D94023FF2CF4D83A
:1001E00014800023F1E70000F0B583B00F00160083
:1001F00008AA117804004C434022BC4202D91000E6
:1002000003B0F0BD002B14D1020008000021194CEE
:10021000A04701003A0000230020174CA04700220D
:100220000123121A8B41120C1B041A433280002244
:10023000E5E70022012BF9D10A00002300210D4C33
:10024000A04702000B0000920193380000210A4CE5
:10025000A047050080239B0140229842CFD8790F08
:10026000F800009A019BA047EA00821AD2B252031A
:100270002A43DBE7811300000501000010B582B0BE
:1002800004000E4B1B78002B07D0002905D10B4B27
:100290005B78834210D01D200CE001A90C700C206B
:1002A000074B98470C20074B9847044B5C70012282
:1002B0001A70002002B010BD0020FBE720000020D3
:1002C000F10E0000650E0000404B984231D00AD973
:1002D0003F4B98424DD03F4B98425AD03E4B9842AC
:1002E00037D0002070473D4B98420CD03C4B984291
:1002F000F7D1012917D000295DD0022915D0032993
:1003000015D00020EEE7012907D0002951D002299D
:1003100005D0032905D00020E4E73248E2E732485F
:10032000E0E73248DEE73248DCE73248DAE73248D5
:10033000D8E7012907D000293FD0022905D0032999
:1003400005D00020CEE72D48CCE72D48CAE72D4840
:10035000C8E7012907D0002931D0022905D0032997
:1003600005D00020BEE72848BCE72848BAE728485F
:10037000B8E7012907D0002923D0022905D0032995
:1003800005D00020AEE72348ACE72348AAE723487E
:10039000A8E7012907D0002915D0022905D0032993
:1003A00005D000209EE71E489CE71E489AE71E489D
:1003B00098E71E4896E7032094E71D4892E71D48FA
:1003C00090E71D488EE71D488CE7C04600100042AC
:1003D00000180042001C00420014004200080042C5
:1003E000000C0042030005000300060003000700A4
:1003F0000300010003001E0003001F0003000900AA
:1004000003000A0003000B000300110003001200A8
:100410000300130003000D0003000E0003000F0093
:100420000300170003001800030019000300040074
:10043000030008000300100003000C000300160076
:1004400030B587B00B4B6A4632CB32C232CB32C2A8
:10045000009B83420BD001239A0069465258824286
:1004600006D00133062BF7D1002007B030BD0023A2
:10047000D8B2FAE71C140000F0B5DE4657464E46E7
:100480004546E0B58DB005000C0016002960080057
:10049000804B9847020023680520DB0706D50DB086
:1004A0003CBC90469946A246AB46F0BD2368173047
:1004B0009B07F4D47849086A971C0123BB40034387
:1004C0000B620BA9737F0B700D32D7B23800734BE0
:1004D00098473800724B9847707F0021714B9847BE
:1004E000F37A6B71337DAB71737DEB712B6898463A
:1004F0001800684B98470D3000220E2302A98C4645
:1005000063441A8033680393F3689A46B37D9B462D
:1005100073689946002B14D080235B05994530D130
:10052000F37D002B31D133691F00C0B25E4B984779
:1005300001000E2202AB9C46624438005B4B984798
:1005400020E0F37D002B0BD01023009300230E221C
:1005500002A98C466244B1693069554FB84711E031
:1005600033691F00C0B2504B98470100102300931D
:1005700000230E2202A88446624438004C4FB8473C
:1005800000E00020002800D089E72A68039F138A32
:100590001BB2002BFBDB0E2302AA944663441B888C
:1005A0004246538153461F434B461F435B465B07FE
:1005B0001F43F37D002B01D104331F43317D4904D8
:1005C000737D1B040B43B17AF27A114319433389CB
:1005D000FF2B03D08022520417431943337F002B93
:1005E00003D1344B9B789B0701D580231F432A6896
:1005F000138A1BB2002BFBDB434659602A68138A1F
:100600001BB2002BFBDB43461F600AAB80221A7033
:1006100000225A70DA709A70336A0693736A0793ED
:10062000B36A0893F36A03930993002706AE06E0C2
:100630002000214B984707E00137042F0DD0F9B275
:10064000BB0098590028F3D0431CF5D00AA90870C4
:10065000000CC0B2194B9847EEE70023AB60EB608B
:100660002B61AB616B610022EB83AB832033EA54D7
:100670000133EA540133EA540133EA542868054B44
:10068000984704000E490F4B9847A4000E4BE550C5
:10069000002004E74104000000040040F10E0000C7
:1006A000650E00007D0200000D0F0000BF0100007C
:1006B000E901000000200041C9020000E90F00002C
:1006C000190800004109000058000020C2791C23CD
:1006D000002A01D118007047C28B92B2173B002A42
:1006E000F8D10268138A1BB2002BFBDB11830221B5
:1006F000937B0B42FCD00023ECE782791C23002A79
:1007000001D118007047828B92B2173B002AF8D1B2
:100710000268907B4007F4D5138A1BB2002BFBDBE9
:10072000138ADBB2580711D0980703D5022313822E
:100730001833E6E7580703D5042313821A33E0E79A
:10074000DB0703D5012313821233DAE7138B0B8007
:100750000023D6E7F0B5CE46474680B583B0050006
:1007600001911720002A04D103B00CBC9046994691
:10077000F0BDEB790530002BF6D02C68238A1BB234
:10078000002BFBDB013A93B2994600260127204B50
:10079000984611E0731C9BB2019A915D6A79012A17
:1007A00017D089B21E0028001A4B98474B46013BD0
:1007B0009BB29946434513D0A37B3B42EAD1144BED
:1007C000A27B3A42E6D1012B19D0013B002BF7D195
:1007D000E0E70236B6B2019AD35C1B021943E2E7A6
:1007E000A37B9B070DD40A4B0221A27B0A420AD1AC
:1007F000012B0AD0013B002BF7D10020B4E71220D7
:10080000B2E70020B0E70020AEE71220ACE7C04618
:10081000FFFF0000CD060000F8B58000464BC5582C
:100820002C68238A1BB2002BFBDBA37B667B1E405C
:100830002023EB5C2122AF5C1F40F30722D5EB8B1A
:100840009BB2002B1CD0AA691378DBB2511CA961A2
:10085000697901290ED09BB2DB05DB0D2383EB8B7D
:10086000013B9BB2EB83002B0CD10133237301338B
:10087000637307E0517809020B430232AA61EBE788
:1008800001232373B30706D50223237300222133E8
:10089000EA54FB0716D473074DD5AB8B9BB2002BE4
:1008A00047D0238ADBB25A0720D09A070ED51A22E6
:1008B0002223EA54203B23827B073CD52B69280066
:1008C000984738E02800AB689847E4E75A0705D511
:1008D0001E222223EA541E3B2382EDE7DB07EBD5E1
:1008E00013222223EA54213B2382E5E7238BDB05F5
:1008F000DB0DDAB269690A706A69511C696169794C
:10090000012910D0AB8B013B9BB2AB83002B12D1E2
:100910000433237300221E33EA54BB070BD5EB6864
:100920002800984707E01B0A53706B6901336B611D
:10093000E8E704232373F8BD580000207047000047
:10094000F0B50A4B1B78002B0CD1094F094E0A4D0C
:100950000024DE515A1914600433182BF9D10122F6
:10096000024B1A708000024BC150F0BD22000020E3
:10097000240000203D0900005800002000B583B08D
:1009800007236A46137001335370013393700133A8
:10099000D3700133137101335371034B98476B4686
:1009A000185603B000BDC0464104000010B5024B0C
:1009B0001B680020984710BD2400002010B5024B92
:1009C0005B680120984710BD2400002010B5024B41
:1009D0009B680220984710BD2400002010B5024BF0
:1009E000DB680320984710BD2400002010B5024B9F
:1009F0001B690420984710BD2400002010B5024B4D
:100A00005B690520984710BD240000200C4B1B6833
:100A1000002B06D1EFF31083002B07D00022094BE7
:100A20001A70074A136801331360704772B6BFF338
:100A30005F8F0022044B1A700132024B1A70F0E7EC
:100A40003C0000204000002000000020084B1A68F5
:100A5000013A1A601B68002B09D1064B1B78002B4A
:100A600005D00122044B1A70BFF35F8F62B6704746
:100A70003C0000204000002000000020F0B583B0C2
:100A800001AC012565700027A770257021000E209C
:100A9000064EB0478022D201054B9A6127706570DF
:100AA00021000F20B04703B0F0BDC046B50A0000DA
:100AB0000044004100B583B001AB80221A700A786F
:100AC0005A704A789A708A78DA701900014B984700
:100AD00003B000BDE90F000010B5072803D880005F
:100AE000164B1B589F46002027E0154BD86824E082
:100AF000144B1B6A9B059B0F1348D8401DE0104BFD
:100B000018691AE00E4B1B6800209B0715D50D498C
:100B10001022CB681A42FCD0094B1B685B0701D43A
:100B20000A480AE000200A4B9847054B9B681B04C3
:100B30001B0C584301E08020000210BD341400005B
:100B4000440000200008004000127A00006CDC0223
:100B50000D0F000070B50C490B6A04788578407859
:100B60000122104080014026B34303432A40D201B2
:100B70008020834313430322224012020348034090
:100B800013430B6270BDC04600080040FFFCFFFF2E
:100B9000072803D880001E4B1B589F46172036E0BD
:100BA0001C4A136A02210B43136200202FE0194AEA
:100BB000936902210B439361002028E0154A138AB0
:100BC00002210B431382002021E0124A938A022162
:100BD0000B43938200201AE00F4B1A6802210A434C
:100BE0001A601B680D4A13400A4A938411001022B0
:100BF000CB681A42FCD0084A9168064BD96251680A
:100C00009962126892B29A84002000E00020704736
:100C10005414000000080040440000207FFF000042
:100C200030B585B0C222D2001A4B9A601A4A536876
:100C30001E218B43536001236A4613700024174D15
:100C4000E0B26946A84701341C2CF9D103A800245E
:100C50004470012585700470114B98470620114B94
:100C60009847114B9847114B1C725C729C72DC7256
:100C700001956B465C7006236A46137014725472B9
:100C8000694600200A4B984700200A4B984705B058
:100C900030BDC0460008004000400041F10E000099
:100CA000550B0000910B0000B90C0000000400403F
:100CB000DD0C0000950D0000064A936908210B43E6
:100CC00093610122044B1A7019000B781342FCD176
:100CD0007047C04600040040000C004070B506009C
:100CE00004000D782D0205434B78002B02D08023A1
:100CF000DB021D434B7A002B02D080231B031D43D4
:100D00004868012810D9431E184234D1022830D92E
:100D10000223002201325B009842FBD812023243C8
:100D2000140080235B031D430B7A002B02D0802329
:100D30009B031D43134A53785BB2002BFBDB124B22
:100D40009847124B1E700F4A53785BB2002BFBDBA7
:100D50000C4B9C601A0053785BB2002BFBDB094AFA
:100D60005368802149020B401D435560084B98474A
:100D700070BD0022D2E70402344380239B021D434E
:100D8000D2E7C046000C00400D0A0000080C0040ED
:100D90004D0A000010B504000B4A53785BB2002BDB
:100DA000FBDB0A4B98470A4B1C70074A53785BB22F
:100DB000002BFBDB044A516880235B020B4353602A
:100DC000044B984710BDC046000C00400D0A0000BF
:100DD000040C00404D0A000070B504001A4A537814
:100DE0005BB2002BFBDB194B9847194B1C70164A62
:100DF00053785BB2002BFBDB134E7068C004C00E4F
:100E0000144B98470500124B1C707668F602F60FDB
:100E1000114B1C700C4A53785BB2002BFBDB0A4B66
:100E20009C682402240C0D4B9847002E07D1012CFE
:100E300007D9210028000A4B9847050001E001343A
:100E4000E540280070BDC046000C00400D0A0000BF
:100E5000040C0040D90A0000080C00404D0A0000B4
:100E60006912000010B50400064B9847064B1C7031
:100E7000064A53888021C9010B435380044B98478D
:100E800010BDC0460D0A0000020C0040000C0040DE
:100E90004D0A000010B504000F4B98470F4B1C7013
:100EA0000F4A53881B05180F53880E490B40538077
:100EB00053880D490B40538011008022D2014B888A
:100EC0001342FCD106494A880302064802401343F4
:100ED0004B80064B984710BD0D0A0000020C0040E5
:100EE000000C0040FFF0FFFFFFBFFFFF4D0A0000B6
:100EF00010B50C7824020443024B9847A4B2024B6D
:100F00005C8010BD950E0000000C004010B5040080
:100F1000064B9847064B1C70064B5C882405240F33
:100F2000054B98472000054B984710BD0D0A00005F
:100F3000020C0040000C00404D0A0000D90D0000DA
:100F400030B5D378002B35D11378802B29D01B06F0
:100F500080246402234354780225AC4306D194785C
:100F6000002C20D18024A402234341605478013C0A
:100F7000012C1CD90D042D0CA024E4052C431C438A
:100F800084620D0CD02424062C431C438462D47844
:100F9000002C22D15B031CD59378012B1ED041611C
:100FA00017E00023D7E7C024E4022343DDE70D4C1C
:100FB0002340DFE741600C04240CA023DB0523431E
:100FC00083620C0CD0231B0623438362D378002B4F
:100FD00003D15378013B012B02D930BD8161F8E781
:100FE0008160FAE7FFFFFBFF10B50A00C10900238B
:100FF000002904D14309DB0105498C4663441F24C1
:101000002040012181401800024B984710BDC04686
:1010100000440041410F00007047000010B5054B2F
:101020009847054B9847054B9847054B9847054B04
:10103000984710BD210C00007D0A00001910000027
:101040001910000019100000FEE7000010B51A4A40
:101050001A4B9A4211D01A00194B9A420DD2194AD2
:1010600003339B1A9B0801339B000022134812494B
:101070008C58845004329A42FAD1134A134B9A4244
:101080000AD2D34311495B1803218B4304339B18C5
:10109000002102C29342FCD10D4AFF210D4B8B432C
:1010A00093600D4A53687F390B4353600B4B98474D
:1010B0000B4B9847FEE7C046B41400000000002028
:1010C0000400002004000020040000209400002000
:1010D00000ED00E00000000000400041D5130000DA
:1010E0008111000030B58DB08023DB050093002313
:1010F0000193FF2269460A818B72CB72962292017C
:10110000049201220A754A758B75CB7506930B778D
:101110004B77C4239B03039301235B4208930993FA
:10112000104B0A93104B0B93104D114C6A4611490A
:101130002800A0470028F9D10C4D2C6820000E4B48
:1011400098471F2318401E3B83400C4A13602A68AF
:10115000138A1BB2002BFBDB23680222134323609C
:101160000DB030BD02001800020019007000002010
:1011700079040000001400427D09000000E100E055
:10118000F0B5C64600B58AB006AC2C4B220023CB86
:1011900023C2198811809B789370294B1A68049296
:1011A0001A7904AB1A71274B1A6802929A8802AB1B
:1011B0009A8001AB244A1188198092789A70234B47
:1011C0009847234B98470F2221002248224B9847EB
:1011D0000026214B98461AE08022D2011F4B9A61CB
:1011E000012E25D06B46991C1A481D4B98470028A4
:1011F0000DD16B469D1C174C1A4F29882000B8470B
:101200000028FAD1032201A91248134B9847134B27
:101210001B6A1B04E0D48022D201104B5A61012EBC
:10122000E0D0052204A90B480B4B98470126D9E7CB
:10123000062202A90748C0470026D3E7741400001D
:10124000841400008C140000801400001D100000A5
:10125000E510000070000020550700000044004128
:10126000FB060000CD060000002243088B4274D329
:1012700003098B425FD3030A8B4244D3030B8B4297
:1012800028D3030C8B420DD3FF22090212BA030CA0
:101290008B4202D31212090265D0030B8B4219D381
:1012A00000E0090AC30B8B4201D3CB03C01A5241A1
:1012B000830B8B4201D38B03C01A5241430B8B42E9
:1012C00001D34B03C01A5241030B8B4201D30B03D2
:1012D000C01A5241C30A8B4201D3CB02C01A5241F9
:1012E000830A8B4201D38B02C01A5241430A8B42BC
:1012F00001D34B02C01A5241030A8B4201D30B02A5
:10130000C01A5241CDD2C3098B4201D3CB01C01ABE
:10131000524183098B4201D38B01C01A52414309C8
:101320008B4201D34B01C01A524103098B4201D3B6
:101330000B01C01A5241C3088B4201D3CB00C01A23
:10134000524183088B4201D38B00C01A524143089B
:101350008B4201D34B00C01A5241411A00D20146C0
:10136000524110467047FFE701B5002000F006F833
:1013700002BDC0460029F7D076E770477047C046E7
:10138000F0B5CE46474615042D0C2E0080B5070457
:10139000140C3F0C9946030C7E435D436743634343
:1013A0007F19340CE4199C46A54203D980235B02C3
:1013B0009846C4444B46514343433604360C250CEF
:1013C00024046544A4195918491920000CBC9046FE
:1013D0009946F0BD70B500260C4D0D4C641BA41051
:1013E000A64209D1002600F055F80A4D0A4C641BAC
:1013F000A410A64205D170BDB300EB589847013642
:10140000EEE7B300EB5898470136F2E7A01400006E
:10141000A0140000A0140000A41400000008004262
:10142000000C00420010004200140042001800426C
:10143000001C0042EA0A0000E60A0000E60A00007A
:10144000360B0000360B0000FE0A0000F00A000018
:10145000040B0000BC0B00009C0B00009C0B000068
:101460000C0C0000AE0B0000CA0B0000A00B00002B
:10147000D80B000048656C6C6F20576F726C64214C
:101480000D0A00004F6E0D0A000000004F66660D49
:101490000A000000F8B5C046F8BC08BC9E4670477C
:1014A000CD000000F8B5C046F8BC08BC9E467047A9
:0414B000A500000093
:0414B4000100000033
:040000030000104D9C
:00000001FF
